{
  "_format": "hh-sol-artifact-1",
  "contractName": "RightsNFT",
  "sourceName": "contracts/RightsNFT.sol",
  "abi": [
    {
      "inputs": [
        {
          "internalType": "address",
          "name": "_filmRegistry",
          "type": "address"
        }
      ],
      "stateMutability": "nonpayable",
      "type": "constructor"
    },
    {
      "anonymous": false,
      "inputs": [
        {
          "indexed": true,
          "internalType": "address",
          "name": "from",
          "type": "address"
        },
        {
          "indexed": true,
          "internalType": "address",
          "name": "to",
          "type": "address"
        },
        {
          "indexed": true,
          "internalType": "uint256",
          "name": "tokenId",
          "type": "uint256"
        }
      ],
      "name": "Transfer",
      "type": "event"
    },
    {
      "inputs": [
        {
          "internalType": "address",
          "name": "owner",
          "type": "address"
        }
      ],
      "name": "balanceOf",
      "outputs": [
        {
          "internalType": "uint256",
          "name": "balance",
          "type": "uint256"
        }
      ],
      "stateMutability": "view",
      "type": "function"
    },
    {
      "inputs": [
        {
          "internalType": "uint256",
          "name": "",
          "type": "uint256"
        }
      ],
      "name": "filmOf",
      "outputs": [
        {
          "internalType": "uint256",
          "name": "",
          "type": "uint256"
        }
      ],
      "stateMutability": "view",
      "type": "function"
    },
    {
      "inputs": [],
      "name": "filmRegistry",
      "outputs": [
        {
          "internalType": "address",
          "name": "",
          "type": "address"
        }
      ],
      "stateMutability": "view",
      "type": "function"
    },
    {
      "inputs": [
        {
          "internalType": "uint256",
          "name": "filmId",
          "type": "uint256"
        },
        {
          "internalType": "address",
          "name": "to",
          "type": "address"
        },
        {
          "internalType": "string",
          "name": "tokenURI",
          "type": "string"
        }
      ],
      "name": "mintNFT",
      "outputs": [
        {
          "internalType": "uint256",
          "name": "tokenId",
          "type": "uint256"
        }
      ],
      "stateMutability": "nonpayable",
      "type": "function"
    },
    {
      "inputs": [],
      "name": "name",
      "outputs": [
        {
          "internalType": "string",
          "name": "",
          "type": "string"
        }
      ],
      "stateMutability": "view",
      "type": "function"
    },
    {
      "inputs": [],
      "name": "nextTokenId",
      "outputs": [
        {
          "internalType": "uint256",
          "name": "",
          "type": "uint256"
        }
      ],
      "stateMutability": "view",
      "type": "function"
    },
    {
      "inputs": [
        {
          "internalType": "uint256",
          "name": "tokenId",
          "type": "uint256"
        }
      ],
      "name": "ownerOf",
      "outputs": [
        {
          "internalType": "address",
          "name": "owner",
          "type": "address"
        }
      ],
      "stateMutability": "view",
      "type": "function"
    },
    {
      "inputs": [],
      "name": "protocolId",
      "outputs": [
        {
          "internalType": "uint256",
          "name": "",
          "type": "uint256"
        }
      ],
      "stateMutability": "pure",
      "type": "function"
    },
    {
      "inputs": [],
      "name": "symbol",
      "outputs": [
        {
          "internalType": "string",
          "name": "",
          "type": "string"
        }
      ],
      "stateMutability": "view",
      "type": "function"
    },
    {
      "inputs": [
        {
          "internalType": "uint256",
          "name": "",
          "type": "uint256"
        }
      ],
      "name": "tokenURIOf",
      "outputs": [
        {
          "internalType": "string",
          "name": "",
          "type": "string"
        }
      ],
      "stateMutability": "view",
      "type": "function"
    }
  ],
  "bytecode": "0x60c0604052601060809081526f436861696e46696c6d2052696768747360801b60a05260009061002f90826102c4565b5060408051808201909152600381526221a32960e91b602082015260019061005790826102c4565b5034801561006457600080fd5b50604051610ba2380380610ba283398101604081905261008391610383565b6101fe610122604080516080810182526000808252602082018190529181018290526060810191909152506040805160808101825273687820221192c5b662b25367f70076a37bc79b6c815273848b0066793bcc60346da1f49049357399b8d595602082015273a02cda4ca3a71d7c46997716f4283aa851c2881291810191909152731364cbbf2cdf5032c47d8226a6f6fbd2afcdacac606082015290565b80517f9e7b61f58c47dc699ac88507c4f5bb9f121c03808c5676a8078fe583e464970080546001600160a01b03199081166001600160a01b039384161790915560208301517f9e7b61f58c47dc699ac88507c4f5bb9f121c03808c5676a8078fe583e46497018054831691841691909117905560408301517f9e7b61f58c47dc699ac88507c4f5bb9f121c03808c5676a8078fe583e46497028054831691841691909117905560608301517f9e7b61f58c47dc699ac88507c4f5bb9f121c03808c5676a8078fe583e46497038054909216921691909117905550565b600280546001600160a01b0319166001600160a01b03929092169190911790556103b3565b634e487b7160e01b600052604160045260246000fd5b600181811c9082168061024d57607f821691505b60208210810361026d57634e487b7160e01b600052602260045260246000fd5b50919050565b601f8211156102bf576000816000526020600020601f850160051c8101602086101561029c5750805b601f850160051c820191505b818110156102bb578281556001016102a8565b5050505b505050565b81516001600160401b038111156102dd576102dd610223565b6102f1816102eb8454610239565b84610273565b602080601f831160018114610326576000841561030e5750858301515b600019600386901b1c1916600185901b1785556102bb565b600085815260208120601f198616915b8281101561035557888601518255948401946001909101908401610336565b50858210156103735787850151600019600388901b60f8161c191681555b5050505050600190811b01905550565b60006020828403121561039557600080fd5b81516001600160a01b03811681146103ac57600080fd5b9392505050565b6107e0806103c26000396000f3fe608060405234801561001057600080fd5b506004361061009e5760003560e01c806375794a3c1161006657806375794a3c146101405780638f83915314610149578063942ddca31461015c57806395d89b411461016f578063da1f12ab1461017757600080fd5b806306fdde03146100a35780630ad75acc146100c1578063631ef17e146100ef5780636352211e1461010257806370a082311461012d575b600080fd5b6100ab61017f565b6040516100b8919061049c565b60405180910390f35b6100e16100cf3660046104eb565b60076020526000908152604090205481565b6040519081526020016100b8565b6100ab6100fd3660046104eb565b61020d565b6101156101103660046104eb565b610226565b6040516001600160a01b0390911681526020016100b8565b6100e161013b36600461051b565b610282565b6100e160035481565b6100e161015736600461054c565b6102df565b600254610115906001600160a01b031681565b6100ab61037a565b6127116100e1565b6000805461018c90610617565b80601f01602080910402602001604051908101604052809291908181526020018280546101b890610617565b80156102055780601f106101da57610100808354040283529160200191610205565b820191906000526020600020905b8154815290600101906020018083116101e857829003601f168201915b505050505081565b6006602052600090815260409020805461018c90610617565b6000818152600460205260409020546001600160a01b03168061027d5760405162461bcd60e51b815260206004820152600a6024820152691b9bdd081b5a5b9d195960b21b60448201526064015b60405180910390fd5b919050565b60006001600160a01b0382166102c35760405162461bcd60e51b8152600401610274906020808252600490820152637a65726f60e01b604082015260600190565b506001600160a01b031660009081526005602052604090205490565b6002546000906001600160a01b0316331461032c5760405162461bcd60e51b815260206004820152600d60248201526c6f6e6c7920726567697374727960981b6044820152606401610274565b60036000815461033b90610667565b918290555060008181526007602090815260408083208890556006909152902090915061036883826106d1565b506103738382610387565b9392505050565b6001805461018c90610617565b6001600160a01b0382166103c65760405162461bcd60e51b8152600401610274906020808252600490820152637a65726f60e01b604082015260600190565b6000818152600460205260409020546001600160a01b0316156104145760405162461bcd60e51b81526020600482015260066024820152651b5a5b9d195960d21b6044820152606401610274565b600081815260046020908152604080832080546001600160a01b0319166001600160a01b03871690811790915583526005909152812080546001929061045b908490610791565b909155505060405181906001600160a01b038416906000907fddf252ad1be2c89b69c2b068fc378daa952ba7f163c4a11628f55a4df523b3ef908290a45050565b60006020808352835180602085015260005b818110156104ca578581018301518582016040015282016104ae565b506000604082860101526040601f19601f8301168501019250505092915050565b6000602082840312156104fd57600080fd5b5035919050565b80356001600160a01b038116811461027d57600080fd5b60006020828403121561052d57600080fd5b61037382610504565b634e487b7160e01b600052604160045260246000fd5b60008060006060848603121561056157600080fd5b8335925061057160208501610504565b9150604084013567ffffffffffffffff8082111561058e57600080fd5b818601915086601f8301126105a257600080fd5b8135818111156105b4576105b4610536565b604051601f8201601f19908116603f011681019083821181831017156105dc576105dc610536565b816040528281528960208487010111156105f557600080fd5b8260208601602083013760006020848301015280955050505050509250925092565b600181811c9082168061062b57607f821691505b60208210810361064b57634e487b7160e01b600052602260045260246000fd5b50919050565b634e487b7160e01b600052601160045260246000fd5b60006001820161067957610679610651565b5060010190565b601f8211156106cc576000816000526020600020601f850160051c810160208610156106a95750805b601f850160051c820191505b818110156106c8578281556001016106b5565b5050505b505050565b815167ffffffffffffffff8111156106eb576106eb610536565b6106ff816106f98454610617565b84610680565b602080601f831160018114610734576000841561071c5750858301515b600019600386901b1c1916600185901b1785556106c8565b600085815260208120601f198616915b8281101561076357888601518255948401946001909101908401610744565b50858210156107815787850151600019600388901b60f8161c191681555b5050505050600190811b01905550565b808201808211156107a4576107a4610651565b9291505056fea2646970667358221220530ba8176c8ef9a7adf0296c92aa47b52aba41a2ae3ec477be9e634ba805791164736f6c63430008180033",
  "linkReferences": {},
  "deployedLinkReferences": {}
}