{
  "_format": "hh-sol-artifact-1",
  "contractName": "LicenseManager",
  "sourceName": "contracts/LicenseManager.sol",
  "abi": [
    {
      "inputs": [
        {
          "internalType": "address",
          "name": "_revenue",
          "type": "address"
        },
        {
          "internalType": "address",
          "name": "_feeCollector",
          "type": "address"
        },
        {
          "internalType": "uint256",
          "name": "_basePriceWei",
          "type": "uint256"
        }
      ],
      "stateMutability": "nonpayable",
      "type": "constructor"
    },
    {
      "anonymous": false,
      "inputs": [
        {
          "indexed": true,
          "internalType": "uint256",
          "name": "filmId",
          "type": "uint256"
        },
        {
          "indexed": true,
          "internalType": "address",
          "name": "user",
          "type": "address"
        },
        {
          "indexed": false,
          "internalType": "uint256",
          "name": "value",
          "type": "uint256"
        }
      ],
      "name": "Purchased",
      "type": "event"
    },
    {
      "inputs": [],
      "name": "basePriceWei",
      "outputs": [
        {
          "internalType": "uint256",
          "name": "",
          "type": "uint256"
        }
      ],
      "stateMutability": "view",
      "type": "function"
    },
    {
      "inputs": [],
      "name": "feeCollector",
      "outputs": [
        {
          "internalType": "address",
          "name": "",
          "type": "address"
        }
      ],
      "stateMutability": "view",
      "type": "function"
    },
    {
      "inputs": [
        {
          "internalType": "uint256",
          "name": "filmId",
          "type": "uint256"
        },
        {
          "internalType": "address",
          "name": "user",
          "type": "address"
        }
      ],
      "name": "getLicenseStatus",
      "outputs": [
        {
          "internalType": "bool",
          "name": "",
          "type": "bool"
        }
      ],
      "stateMutability": "view",
      "type": "function"
    },
    {
      "inputs": [
        {
          "internalType": "uint256",
          "name": "",
          "type": "uint256"
        },
        {
          "internalType": "address",
          "name": "",
          "type": "address"
        }
      ],
      "name": "licensed",
      "outputs": [
        {
          "internalType": "bool",
          "name": "",
          "type": "bool"
        }
      ],
      "stateMutability": "view",
      "type": "function"
    },
    {
      "inputs": [],
      "name": "protocolId",
      "outputs": [
        {
          "internalType": "uint256",
          "name": "",
          "type": "uint256"
        }
      ],
      "stateMutability": "pure",
      "type": "function"
    },
    {
      "inputs": [
        {
          "internalType": "uint256",
          "name": "filmId",
          "type": "uint256"
        }
      ],
      "name": "purchaseLicense",
      "outputs": [],
      "stateMutability": "payable",
      "type": "function"
    },
    {
      "inputs": [],
      "name": "revenue",
      "outputs": [
        {
          "internalType": "contract IRevenueManager",
          "name": "",
          "type": "address"
        }
      ],
      "stateMutability": "view",
      "type": "function"
    }
  ],
  "bytecode": "0x608060405234801561001057600080fd5b5060405161064038038061064083398101604081905261002f916101fe565b6101aa6100ce604080516080810182526000808252602082018190529181018290526060810191909152506040805160808101825273687820221192c5b662b25367f70076a37bc79b6c815273848b0066793bcc60346da1f49049357399b8d595602082015273a02cda4ca3a71d7c46997716f4283aa851c2881291810191909152731364cbbf2cdf5032c47d8226a6f6fbd2afcdacac606082015290565b80517f9e7b61f58c47dc699ac88507c4f5bb9f121c03808c5676a8078fe583e464970080546001600160a01b03199081166001600160a01b039384161790915560208301517f9e7b61f58c47dc699ac88507c4f5bb9f121c03808c5676a8078fe583e46497018054831691841691909117905560408301517f9e7b61f58c47dc699ac88507c4f5bb9f121c03808c5676a8078fe583e46497028054831691841691909117905560608301517f9e7b61f58c47dc699ac88507c4f5bb9f121c03808c5676a8078fe583e46497038054909216921691909117905550565b600080546001600160a01b039485166001600160a01b031991821617909155600180549390941692169190911790915560025561023a565b80516001600160a01b03811681146101f957600080fd5b919050565b60008060006060848603121561021357600080fd5b61021c846101e2565b925061022a602085016101e2565b9150604084015190509250925092565b6103f7806102496000396000f3fe6080604052600436106100705760003560e01c80637e1cdf461161004e5780637e1cdf4614610121578063c415b95c14610167578063c8a028a814610187578063da1f12ab1461019c57600080fd5b8063074d8202146100755780633e9491a2146100c55780634fb9a9a3146100fd575b600080fd5b34801561008157600080fd5b506100b061009036600461033d565b600360209081526000928352604080842090915290825290205460ff1681565b60405190151581526020015b60405180910390f35b3480156100d157600080fd5b506000546100e5906001600160a01b031681565b6040516001600160a01b0390911681526020016100bc565b34801561010957600080fd5b5061011360025481565b6040519081526020016100bc565b34801561012d57600080fd5b506100b061013c36600461033d565b60009182526003602090815260408084206001600160a01b0393909316845291905290205460ff1690565b34801561017357600080fd5b506001546100e5906001600160a01b031681565b61019a610195366004610379565b6101b1565b005b3480156101a857600080fd5b50612711610113565b6002543410156101fd5760405162461bcd60e51b8152602060048201526012602482015271696e73756666696369656e7420707269636560701b60448201526064015b60405180910390fd5b600081815260036020908152604080832033845282528083208054600160ff199091161790558254815160248101869052346044808301829052845180840390910181526064909201845293810180516001600160e01b0316634ae699ef60e01b17905291516001600160a01b03909116929161027991610392565b60006040518083038185875af1925050503d80600081146102b6576040519150601f19603f3d011682016040523d82523d6000602084013e6102bb565b606091505b50509050806103025760405162461bcd60e51b81526020600482015260136024820152721c995d995b9d594818d85b1b0819985a5b1959606a1b60448201526064016101f4565b604051348152339083907ffd51b2c9f55c42d2b72ac683526519563be02fc0107f034ff430c05185ff1b669060200160405180910390a35050565b6000806040838503121561035057600080fd5b8235915060208301356001600160a01b038116811461036e57600080fd5b809150509250929050565b60006020828403121561038b57600080fd5b5035919050565b6000825160005b818110156103b35760208186018101518583015201610399565b50600092019182525091905056fea26469706673582212202e6398bc4f43b3cb98c728bb54634cab59cebe510eb7766d76e24522bcf941ed64736f6c63430008180033",
  "linkReferences": {},
  "deployedLinkReferences": {}
}